{
  "abi": [
    {
      "type": "function",
      "name": "UPGRADE_INTERFACE_VERSION",
      "inputs": [],
      "outputs": [
        {
          "name": "",
          "type": "string",
          "internalType": "string"
        }
      ],
      "stateMutability": "view"
    },
    {
      "type": "function",
      "name": "addsequencer",
      "inputs": [
        {
          "name": "_address",
          "type": "address",
          "internalType": "address"
        }
      ],
      "outputs": [],
      "stateMutability": "nonpayable"
    },
    {
      "type": "function",
      "name": "balances",
      "inputs": [
        {
          "name": "",
          "type": "address",
          "internalType": "address"
        }
      ],
      "outputs": [
        {
          "name": "",
          "type": "uint256",
          "internalType": "uint256"
        }
      ],
      "stateMutability": "view"
    },
    {
      "type": "function",
      "name": "deposit",
      "inputs": [
        {
          "name": "_amount",
          "type": "uint256",
          "internalType": "uint256"
        }
      ],
      "outputs": [],
      "stateMutability": "nonpayable"
    },
    {
      "type": "function",
      "name": "diamond",
      "inputs": [],
      "outputs": [
        {
          "name": "",
          "type": "address",
          "internalType": "address"
        }
      ],
      "stateMutability": "view"
    },
    {
      "type": "function",
      "name": "initialize",
      "inputs": [
        {
          "name": "_diamond",
          "type": "address",
          "internalType": "address"
        },
        {
          "name": "_usdc",
          "type": "address",
          "internalType": "address"
        }
      ],
      "outputs": [],
      "stateMutability": "nonpayable"
    },
    {
      "type": "function",
      "name": "lockForAnOrder",
      "inputs": [
        {
          "name": "_account",
          "type": "address",
          "internalType": "address"
        },
        {
          "name": "_amount",
          "type": "uint256",
          "internalType": "uint256"
        }
      ],
      "outputs": [],
      "stateMutability": "nonpayable"
    },
    {
      "type": "function",
      "name": "locked",
      "inputs": [
        {
          "name": "",
          "type": "address",
          "internalType": "address"
        }
      ],
      "outputs": [
        {
          "name": "",
          "type": "uint256",
          "internalType": "uint256"
        }
      ],
      "stateMutability": "view"
    },
    {
      "type": "function",
      "name": "owner",
      "inputs": [],
      "outputs": [
        {
          "name": "",
          "type": "address",
          "internalType": "address"
        }
      ],
      "stateMutability": "view"
    },
    {
      "type": "function",
      "name": "pause",
      "inputs": [],
      "outputs": [],
      "stateMutability": "nonpayable"
    },
    {
      "type": "function",
      "name": "paused",
      "inputs": [],
      "outputs": [
        {
          "name": "",
          "type": "bool",
          "internalType": "bool"
        }
      ],
      "stateMutability": "view"
    },
    {
      "type": "function",
      "name": "proxiableUUID",
      "inputs": [],
      "outputs": [
        {
          "name": "",
          "type": "bytes32",
          "internalType": "bytes32"
        }
      ],
      "stateMutability": "view"
    },
    {
      "type": "function",
      "name": "renounceOwnership",
      "inputs": [],
      "outputs": [],
      "stateMutability": "nonpayable"
    },
    {
      "type": "function",
      "name": "sequencer",
      "inputs": [],
      "outputs": [
        {
          "name": "",
          "type": "address",
          "internalType": "address"
        }
      ],
      "stateMutability": "view"
    },
    {
      "type": "function",
      "name": "transferIn",
      "inputs": [
        {
          "name": "_trader",
          "type": "address",
          "internalType": "address"
        },
        {
          "name": "amount",
          "type": "uint256",
          "internalType": "uint256"
        }
      ],
      "outputs": [],
      "stateMutability": "nonpayable"
    },
    {
      "type": "function",
      "name": "transferOut",
      "inputs": [
        {
          "name": "_trader",
          "type": "address",
          "internalType": "address"
        },
        {
          "name": "amount",
          "type": "uint256",
          "internalType": "uint256"
        }
      ],
      "outputs": [],
      "stateMutability": "nonpayable"
    },
    {
      "type": "function",
      "name": "transferOutLiquidity",
      "inputs": [
        {
          "name": "_trader",
          "type": "address",
          "internalType": "address"
        },
        {
          "name": "amount",
          "type": "uint256",
          "internalType": "uint256"
        }
      ],
      "outputs": [],
      "stateMutability": "nonpayable"
    },
    {
      "type": "function",
      "name": "transferOwnership",
      "inputs": [
        {
          "name": "newOwner",
          "type": "address",
          "internalType": "address"
        }
      ],
      "outputs": [],
      "stateMutability": "nonpayable"
    },
    {
      "type": "function",
      "name": "unlockAmount",
      "inputs": [
        {
          "name": "_account",
          "type": "address",
          "internalType": "address"
        },
        {
          "name": "_amount",
          "type": "uint256",
          "internalType": "uint256"
        }
      ],
      "outputs": [],
      "stateMutability": "nonpayable"
    },
    {
      "type": "function",
      "name": "unpause",
      "inputs": [],
      "outputs": [],
      "stateMutability": "nonpayable"
    },
    {
      "type": "function",
      "name": "upgradeToAndCall",
      "inputs": [
        {
          "name": "newImplementation",
          "type": "address",
          "internalType": "address"
        },
        {
          "name": "data",
          "type": "bytes",
          "internalType": "bytes"
        }
      ],
      "outputs": [],
      "stateMutability": "payable"
    },
    {
      "type": "function",
      "name": "usdc",
      "inputs": [],
      "outputs": [
        {
          "name": "",
          "type": "address",
          "internalType": "address"
        }
      ],
      "stateMutability": "view"
    },
    {
      "type": "function",
      "name": "withdraw",
      "inputs": [
        {
          "name": "_amount",
          "type": "uint256",
          "internalType": "uint256"
        }
      ],
      "outputs": [],
      "stateMutability": "nonpayable"
    },
    {
      "type": "event",
      "name": "Initialized",
      "inputs": [
        {
          "name": "version",
          "type": "uint64",
          "indexed": false,
          "internalType": "uint64"
        }
      ],
      "anonymous": false
    },
    {
      "type": "event",
      "name": "OwnershipTransferred",
      "inputs": [
        {
          "name": "previousOwner",
          "type": "address",
          "indexed": true,
          "internalType": "address"
        },
        {
          "name": "newOwner",
          "type": "address",
          "indexed": true,
          "internalType": "address"
        }
      ],
      "anonymous": false
    },
    {
      "type": "event",
      "name": "Paused",
      "inputs": [
        {
          "name": "account",
          "type": "address",
          "indexed": false,
          "internalType": "address"
        }
      ],
      "anonymous": false
    },
    {
      "type": "event",
      "name": "Unpaused",
      "inputs": [
        {
          "name": "account",
          "type": "address",
          "indexed": false,
          "internalType": "address"
        }
      ],
      "anonymous": false
    },
    {
      "type": "event",
      "name": "Upgraded",
      "inputs": [
        {
          "name": "implementation",
          "type": "address",
          "indexed": true,
          "internalType": "address"
        }
      ],
      "anonymous": false
    },
    {
      "type": "error",
      "name": "AddressEmptyCode",
      "inputs": [
        {
          "name": "target",
          "type": "address",
          "internalType": "address"
        }
      ]
    },
    {
      "type": "error",
      "name": "ERC1967InvalidImplementation",
      "inputs": [
        {
          "name": "implementation",
          "type": "address",
          "internalType": "address"
        }
      ]
    },
    {
      "type": "error",
      "name": "ERC1967NonPayable",
      "inputs": []
    },
    {
      "type": "error",
      "name": "EnforcedPause",
      "inputs": []
    },
    {
      "type": "error",
      "name": "ExpectedPause",
      "inputs": []
    },
    {
      "type": "error",
      "name": "FailedInnerCall",
      "inputs": []
    },
    {
      "type": "error",
      "name": "InvalidInitialization",
      "inputs": []
    },
    {
      "type": "error",
      "name": "NotInitializing",
      "inputs": []
    },
    {
      "type": "error",
      "name": "OwnableInvalidOwner",
      "inputs": [
        {
          "name": "owner",
          "type": "address",
          "internalType": "address"
        }
      ]
    },
    {
      "type": "error",
      "name": "OwnableUnauthorizedAccount",
      "inputs": [
        {
          "name": "account",
          "type": "address",
          "internalType": "address"
        }
      ]
    },
    {
      "type": "error",
      "name": "UUPSUnauthorizedCallContext",
      "inputs": []
    },
    {
      "type": "error",
      "name": "UUPSUnsupportedProxiableUUID",
      "inputs": [
        {
          "name": "slot",
          "type": "bytes32",
          "internalType": "bytes32"
        }
      ]
    }
  ],
  "bytecode": {
    "object": "0x60a060405230608052348015601357600080fd5b5060805161134a61003d60003960008181610b5601528181610b7f0152610cc0015261134a6000f3fe6080604052600436106101405760003560e01c80636587c777116100b6578063b6b55f251161006f578063b6b55f25146103b1578063cbf9fe5f146103d1578063e8888915146103fe578063f0b7db4e1461041e578063f2fde38b1461043e578063fd23d0b21461045e57600080fd5b80636587c777146102cc578063715018a6146102ec57806376890c58146103015780638456cb59146103215780638da5cb5b14610336578063ad3cb1cc1461037357600080fd5b80633f4ba83a116101085780633f4ba83a1461021f578063485cc955146102345780634f1ef2861461025457806352d1902d146102675780635c1bba381461027c5780635c975abb1461029c57600080fd5b806322e2b31f1461014557806327e235e3146101675780632e1a7d4d146101a75780633d0f7934146101c75780633e413bee146101e7575b600080fd5b34801561015157600080fd5b50610165610160366004611081565b61047e565b005b34801561017357600080fd5b506101946101823660046110ab565b60016020526000908152604090205481565b6040519081526020015b60405180910390f35b3480156101b357600080fd5b506101656101c23660046110c6565b610509565b3480156101d357600080fd5b506101656101e2366004611081565b6105fe565b3480156101f357600080fd5b50600054610207906001600160a01b031681565b6040516001600160a01b03909116815260200161019e565b34801561022b57600080fd5b50610165610666565b34801561024057600080fd5b5061016561024f3660046110df565b610678565b610165610262366004611128565b6107c1565b34801561027357600080fd5b506101946107dc565b34801561028857600080fd5b50600454610207906001600160a01b031681565b3480156102a857600080fd5b506000805160206112f58339815191525460ff16604051901515815260200161019e565b3480156102d857600080fd5b506101656102e73660046110ab565b6107f9565b3480156102f857600080fd5b50610165610823565b34801561030d57600080fd5b5061016561031c366004611081565b610835565b34801561032d57600080fd5b506101656108f7565b34801561034257600080fd5b507f9016d09d72d40fdae2fd8ceac6b6234c7706214fd39c1cd1e609a0528c199300546001600160a01b0316610207565b34801561037f57600080fd5b506103a4604051806040016040528060058152602001640352e302e360dc1b81525081565b60405161019e919061120e565b3480156103bd57600080fd5b506101656103cc3660046110c6565b610907565b3480156103dd57600080fd5b506101946103ec3660046110ab565b60026020526000908152604090205481565b34801561040a57600080fd5b50610165610419366004611081565b6109aa565b34801561042a57600080fd5b50600354610207906001600160a01b031681565b34801561044a57600080fd5b506101656104593660046110ab565b6109f2565b34801561046a57600080fd5b50610165610479366004611081565b610a30565b6004546001600160a01b0316331461049557600080fd5b6001600160a01b0382166000908152600260205260409020546104b9908290611257565b6001600160a01b0383166000908152600260209081526040808320939093556001905220546104e990829061126a565b6001600160a01b0390921660009081526001602052604090209190915550565b336000908152600160205260409020548111156105615760405162461bcd60e51b81526020600482015260116024820152706e6f7420656e6f75742062616c616e636560781b60448201526064015b60405180910390fd5b3360009081526001602052604081208054839290610580908490611257565b909155505060005460405163a9059cbb60e01b8152336004820152602481018390526001600160a01b039091169063a9059cbb906044016020604051808303816000875af11580156105d6573d6000803e3d6000fd5b505050506040513d601f19601f820116820180604052508101906105fa919061127d565b5050565b6004546001600160a01b0316331461061557600080fd5b6001600160a01b0382166000908152600260205260408120805483929061063d90849061126a565b90915550506001600160a01b0382166000908152600160205260409020546104e9908290611257565b61066e610a6f565b610676610aca565b565b7ff0c57e16840df040f15088dc2f81fe391c3923bec73e23a9662efc9c229c6a008054600160401b810460ff16159067ffffffffffffffff166000811580156106be5750825b905060008267ffffffffffffffff1660011480156106db5750303b155b9050811580156106e9575080155b156107075760405163f92ee8a960e01b815260040160405180910390fd5b845467ffffffffffffffff19166001178555831561073157845460ff60401b1916600160401b1785555b61073a33610b2a565b610742610b3b565b600380546001600160a01b03808a166001600160a01b031992831617909255600080549289169290911691909117905583156107b857845460ff60401b19168555604051600181527fc7f505b2f371ae2175ee4913f4499e1f2633a7b5936321eed1cdaeb6115181d29060200160405180910390a15b50505050505050565b6107c9610b4b565b6107d282610bf0565b6105fa8282610bf8565b60006107e6610cb5565b506000805160206112d583398151915290565b610801610a6f565b600480546001600160a01b0319166001600160a01b0392909216919091179055565b61082b610a6f565b6106766000610cfe565b6003546001600160a01b0316331461084c57600080fd5b6001600160a01b03821660009081526002602052604081208054839290610874908490611257565b909155505060005460035460405163a9059cbb60e01b81526001600160a01b0391821660048201526024810184905291169063a9059cbb906044016020604051808303816000875af11580156108ce573d6000803e3d6000fd5b505050506040513d601f19601f820116820180604052508101906108f2919061127d565b505050565b6108ff610a6f565b610676610d6f565b6000546040516323b872dd60e01b8152336004820152306024820152604481018390526001600160a01b03909116906323b872dd906064016020604051808303816000875af115801561095e573d6000803e3d6000fd5b505050506040513d601f19601f82011682018060405250810190610982919061127d565b5033600090815260016020526040812080548392906109a290849061126a565b909155505050565b6003546001600160a01b031633146109c157600080fd5b6001600160a01b038216600090815260016020526040812080548392906109e990849061126a565b90915550505050565b6109fa610a6f565b6001600160a01b038116610a2457604051631e4fbdf760e01b815260006004820152602401610558565b610a2d81610cfe565b50565b6003546001600160a01b03163314610a4757600080fd5b6001600160a01b03821660009081526001602052604081208054839290610874908490611257565b33610aa17f9016d09d72d40fdae2fd8ceac6b6234c7706214fd39c1cd1e609a0528c199300546001600160a01b031690565b6001600160a01b0316146106765760405163118cdaa760e01b8152336004820152602401610558565b610ad2610db8565b6000805160206112f5833981519152805460ff191681557f5db9ee0a495bf2e6ff9c91a7834c1ba4fdd244a5e8aa4e537bd38aeae4b073aa335b6040516001600160a01b03909116815260200160405180910390a150565b610b32610de8565b610a2d81610e31565b610b43610de8565b610676610e39565b306001600160a01b037f0000000000000000000000000000000000000000000000000000000000000000161480610bd257507f00000000000000000000000000000000000000000000000000000000000000006001600160a01b0316610bc66000805160206112d5833981519152546001600160a01b031690565b6001600160a01b031614155b156106765760405163703e46dd60e11b815260040160405180910390fd5b610a2d610a6f565b816001600160a01b03166352d1902d6040518163ffffffff1660e01b8152600401602060405180830381865afa925050508015610c52575060408051601f3d908101601f19168201909252610c4f9181019061129f565b60015b610c7a57604051634c9c8ce360e01b81526001600160a01b0383166004820152602401610558565b6000805160206112d58339815191528114610cab57604051632a87526960e21b815260048101829052602401610558565b6108f28383610e5a565b306001600160a01b037f000000000000000000000000000000000000000000000000000000000000000016146106765760405163703e46dd60e11b815260040160405180910390fd5b7f9016d09d72d40fdae2fd8ceac6b6234c7706214fd39c1cd1e609a0528c19930080546001600160a01b031981166001600160a01b03848116918217845560405192169182907f8be0079c531659141344cd1fd0a4f28419497f9722a3daafe3b4186f6b6457e090600090a3505050565b610d77610eb0565b6000805160206112f5833981519152805460ff191660011781557f62e78cea01bee320cd4e420270b5ea74000d11b0c9f74754ebdbfc544b05a25833610b0c565b6000805160206112f58339815191525460ff1661067657604051638dfc202b60e01b815260040160405180910390fd5b7ff0c57e16840df040f15088dc2f81fe391c3923bec73e23a9662efc9c229c6a0054600160401b900460ff1661067657604051631afcd79f60e31b815260040160405180910390fd5b6109fa610de8565b610e41610de8565b6000805160206112f5833981519152805460ff19169055565b610e6382610ee1565b6040516001600160a01b038316907fbc7cd75a20ee27fd9adebab32041f755214dbc6bffa90cc0225b39da2e5c2d3b90600090a2805115610ea8576108f28282610f46565b6105fa610fbe565b6000805160206112f58339815191525460ff16156106765760405163d93c066560e01b815260040160405180910390fd5b806001600160a01b03163b600003610f1757604051634c9c8ce360e01b81526001600160a01b0382166004820152602401610558565b6000805160206112d583398151915280546001600160a01b0319166001600160a01b0392909216919091179055565b6060600080846001600160a01b031684604051610f6391906112b8565b600060405180830381855af49150503d8060008114610f9e576040519150601f19603f3d011682016040523d82523d6000602084013e610fa3565b606091505b5091509150610fb3858383610fdd565b925050505b92915050565b34156106765760405163b398979f60e01b815260040160405180910390fd5b606082610ff257610fed8261103c565b611035565b815115801561100957506001600160a01b0384163b155b1561103257604051639996b31560e01b81526001600160a01b0385166004820152602401610558565b50805b9392505050565b80511561104c5780518082602001fd5b604051630a12f52160e11b815260040160405180910390fd5b80356001600160a01b038116811461107c57600080fd5b919050565b6000806040838503121561109457600080fd5b61109d83611065565b946020939093013593505050565b6000602082840312156110bd57600080fd5b61103582611065565b6000602082840312156110d857600080fd5b5035919050565b600080604083850312156110f257600080fd5b6110fb83611065565b915061110960208401611065565b90509250929050565b634e487b7160e01b600052604160045260246000fd5b6000806040838503121561113b57600080fd5b61114483611065565b9150602083013567ffffffffffffffff8082111561116157600080fd5b818501915085601f83011261117557600080fd5b81358181111561118757611187611112565b604051601f8201601f19908116603f011681019083821181831017156111af576111af611112565b816040528281528860208487010111156111c857600080fd5b8260208601602083013760006020848301015280955050505050509250929050565b60005b838110156112055781810151838201526020016111ed565b50506000910152565b602081526000825180602084015261122d8160408501602087016111ea565b601f01601f19169190910160400192915050565b634e487b7160e01b600052601160045260246000fd5b81810381811115610fb857610fb8611241565b80820180821115610fb857610fb8611241565b60006020828403121561128f57600080fd5b8151801515811461103557600080fd5b6000602082840312156112b157600080fd5b5051919050565b600082516112ca8184602087016111ea565b919091019291505056fe360894a13ba1a3210667c828492db98dca3e2076cc3735a920a3ca505d382bbccd5ed15c6e187e77e9aee88184c21f4f2182ab5827cb3b7e07fbedcd63f03300a2646970667358221220fb2a45ecbd480661a43070f04b8978f277af31d0cdb9e866692c86dfb4919f1b64736f6c63430008190033",
    "linkReferences": {}
  },
  "methodIdentifiers": {
    "UPGRADE_INTERFACE_VERSION()": "ad3cb1cc",
    "addsequencer(address)": "6587c777",
    "balances(address)": "27e235e3",
    "deposit(uint256)": "b6b55f25",
    "diamond()": "f0b7db4e",
    "initialize(address,address)": "485cc955",
    "lockForAnOrder(address,uint256)": "3d0f7934",
    "locked(address)": "cbf9fe5f",
    "owner()": "8da5cb5b",
    "pause()": "8456cb59",
    "paused()": "5c975abb",
    "proxiableUUID()": "52d1902d",
    "renounceOwnership()": "715018a6",
    "sequencer()": "5c1bba38",
    "transferIn(address,uint256)": "e8888915",
    "transferOut(address,uint256)": "76890c58",
    "transferOutLiquidity(address,uint256)": "fd23d0b2",
    "transferOwnership(address)": "f2fde38b",
    "unlockAmount(address,uint256)": "22e2b31f",
    "unpause()": "3f4ba83a",
    "upgradeToAndCall(address,bytes)": "4f1ef286",
    "usdc()": "3e413bee",
    "withdraw(uint256)": "2e1a7d4d"
  },
  "storageLayout": {
    "storage": [
      {
        "astId": 61396,
        "contract": "src/Deposit.sol:Deposit",
        "label": "usdc",
        "offset": 0,
        "slot": "0",
        "type": "t_address"
      },
      {
        "astId": 61400,
        "contract": "src/Deposit.sol:Deposit",
        "label": "balances",
        "offset": 0,
        "slot": "1",
        "type": "t_mapping(t_address,t_uint256)"
      },
      {
        "astId": 61404,
        "contract": "src/Deposit.sol:Deposit",
        "label": "locked",
        "offset": 0,
        "slot": "2",
        "type": "t_mapping(t_address,t_uint256)"
      },
      {
        "astId": 61406,
        "contract": "src/Deposit.sol:Deposit",
        "label": "diamond",
        "offset": 0,
        "slot": "3",
        "type": "t_address"
      },
      {
        "astId": 61408,
        "contract": "src/Deposit.sol:Deposit",
        "label": "sequencer",
        "offset": 0,
        "slot": "4",
        "type": "t_address"
      }
    ],
    "types": {
      "t_address": {
        "encoding": "inplace",
        "label": "address",
        "numberOfBytes": "20"
      },
      "t_mapping(t_address,t_uint256)": {
        "encoding": "mapping",
        "key": "t_address",
        "label": "mapping(address => uint256)",
        "numberOfBytes": "32",
        "value": "t_uint256"
      },
      "t_uint256": {
        "encoding": "inplace",
        "label": "uint256",
        "numberOfBytes": "32"
      }
    }
  },
  "id": 84
}